:020000020000FC
:100000000C940A003F065B4F666D7D077F6F777C1F
:10001000395E797108E00EBF0FEF0DBF0E9423011A
:100020000C94490020E0022F0E949F000E941201C0
:100030002F30C1F32395F7CFF0E0E4E02FE00591F6
:1000400015E20E94B6000E9412012030A9F32A9501
:10005000F6CF01E715E20E94B6000E941201F9CF27
:100060000E9412010E948B000E9412010E949A00BD
:10007000F7CF17E20E94C60015E20E94B600F9CF42
:100080000E94770019F40E949500FACF0E949A000E
:10009000F7CF0E947700C1F00E947B00A9F00E9478
:1000A0006A0091F00E94700079F00E94830061F074
:1000B0000E947F0049F00E94670031F00E947400A6
:1000C00019F00E949A00E5CF0E949500E2CF489B6C
:1000D000189408950E948700989400FF189408953A
:1000E0000E9487000D3F0895499B189408950E942F
:1000F00087000B3F08950E948700073F08950E94E4
:1001000087000F3E08950E9487000F3D089517E273
:100110000E94C600089516E201E00E94B60008950C
:1001200016E202E00E94B600089516E200E00E9486
:10013000B600089516E203E00E94B60008950F701D
:100140000E94AD0015E20E94B60008950F700E9453
:10015000AD0014E20E94B6000895EF93FF93F0E023
:10016000E4E0E00F0491FF91EF910895110F0E94D8
:10017000D7000E94E9000E94E3000E94E9000E946B
:10018000F0000E94E9000E94DD000895110F116047
:100190000E94D7000E94E9000E94E3000E94E9004B
:1001A0000E94F8000E94E9000E94DD0008952F934C
:1001B00024EA2093BC002F9108952F9324E92093E3
:1001C000BC002F9108950F93012F0E94F0000F9112
:1001D00008952F932091BC0027FFFCCF2F91089505
:1001E0002F930093BB0024E82093BC002F91089527
:1001F0002F9324EC2093BC000E94E9000091BB00E7
:100200002F9108951091C00015FFFCCF302F40E3CF
:10021000340F3093C60008950F9304E30A95F1F765
:100220000F9108950F9304E60E941A010A95E1F7D1
:100230000F9108959F938F9393E684EC0196F1F7C5
:100240008F919F91089508E40093B8000091B90040
:100250000C7F0093B900089507E610E00093C400F6
:0C0260001093C50008E10093C100089550
:00000001FF
